:020000040800F2
:10000000A0040020C1010008AF1800085D15000819
:10001000AD18000809020008DF1D000800000000FC
:10002000000000000000000000000000851B000828
:100030000B02000800000000D1180008871B000810
:10004000DB010008DB010008DB010008DB01000820
:10005000DB010008DB010008DB010008DB01000810
:10006000DB010008DB010008DB010008DB01000800
:10007000DB010008DB010008DB010008DB010008F0
:10008000DB010008DB010008DB010008DB010008E0
:10009000DB010008DB010008DB010008DB010008D0
:1000A000DB010008DB010008DB010008DB010008C0
:1000B000551C0008DB010008DB010008DB0100081B
:1000C000DB010008DB010008DB010008DB010008A0
:1000D000DB010008DB010008DB010008DB01000890
:1000E000DB010008DB010008DB010008DB01000880
:1000F000DB010008DB010008DB010008DB01000870
:10010000DB010008DB010008DB010008DB0100085F
:10011000DB010008DB010008DB010008DB0100084F
:10012000DB010008DB010008DB010008DB0100083F
:10013000DB010008DB010008DB010008DB0100082F
:10014000DB010008DB010008DB010008DB0100081F
:10015000DB010008DB010008DB010008DB0100080F
:10016000DB010008DB010008DB010008DB010008FF
:10017000DB010008DB010008DB01000800000000D3
:10018000DB010008DB010008DB010008DB010008DF
:10019000DB010008DB010008DB010008DB010008CF
:1001A000DB010008DB010008DB010008DFF80CD0F0
:1001B00000F018F800480047411F0008A004002084
:1001C0000648804706480047FEE7FEE7FEE7FEE7F1
:1001D000FEE7FEE7FEE7FEE7FEE7FEE7111C00088C
:1001E000AD010008064C074D06E0E06840F0010351
:1001F00094E8070098471034AC42F6D3FFF7DAFFD3
:10020000C8200008E8200008FEE7704770B50446E3
:1002100000F0EEF80546601C00D0641C00F0E8F821
:10022000401BA042FAD370BD2DE9F84FDFF888B12A
:1002300000234FF0010C4FF0030A4FF00F090BF1B0
:10024000040EB1E00CFA03F632406FD04C68022C79
:1002500001D0122C11D1DC0800EB84073C6A5D0749
:10026000ED0E09FA05F824EA0804D1F8108008FA1E
:1002700005F848EA0408C7F8208007685D0091F88F
:1002800004800AFA05F408F00308A74308FA05F801
:1002900048EA0708C0F800804F68012F05D0022FF8
:1002A00003D0112F01D0122F10D1D0F80880CF68C1
:1002B00028EA0408AF4047EA080787604768B74361
:1002C0000E79C6F300169E403E434660C668A643BC
:1002D0008C68AC403443C4604C68E40063D5374C50
:1002E000256E45F001052566246E23F0030504F014
:1002F00001040094324C2F19BD689C07260F09FA9F
:1003000006F4A543B0F1904F04D02E4CA04203D187
:10031000012421E000241FE02B4CA04201D1022443
:100320001AE02A4CA04202D1032415E03BE0284CFD
:10033000A04201D104240FE0264CA04201D10524A3
:100340000AE0254CA04201D1062405E0234CA0423E
:1003500001D1072400E00824B4402C43BC60DBF842
:1003600000405D464E689443F60300D514432C606C
:10037000DEF8004075464E689443B60300D514433A
:100380002C600D4D08352C684E689443F60200D55C
:1003900014432C60084D0C352C684E689443B6020B
:1003A00000D514432C605B1C0A6832FA03F47FF416
:1003B00049AF00F015B800000004014000100240F1
:1003C000000001400004004800080048000C0048FC
:1003D000001000480014004800180048001C0048A5
:1003E00018BCBDE8E08F0AB1816170478162704737
:1003F00001480068704700000400002090F8412088
:10040000202A24D190F84020012A20D0012280F80F
:100410004020242280F841200268136823F0010361
:1004200013600268136823F4805313600268136832
:100430000B43136001680A6842F001020A60202140
:1004400080F84110002180F84010084670470220D3
:10045000704790F84120202A22D190F84020012AAC
:100460001ED0012280F84020242280F8412002681A
:10047000136823F0010313600268136823F47063A8
:1004800043EA0121116001680A6842F001020A6032
:10049000202180F84110002180F840100846704764
:1004A0000220704770B5040004D094F84100002584
:1004B00010B106E0012070BD84F84050204600F0E5
:1004C00006F9242084F841002068016821F0010128
:1004D00001606068216820F07060086120688168B0
:1004E00021F400418160E0680128A06807D040F451
:1004F000044021688860E068022803D006E040F4E8
:100500000040F6E721684FF40060486020684168C9
:10051000114A114341602068C16821F40041C16063
:10052000D4E904010843A16940EA01202168C860B8
:10053000D4E907010843216808602068016841F098
:10054000010101606564202084F84100256384F87E
:100550004250002070BD0000008000022DE9FF4FD6
:1005600083B00446DDE9108790F84100DDF848903B
:100570009A469346202875D15FEA080073D0002F71
:1005800071D094F8400001286CD0012084F840001C
:10059000FFF72EFF0646012200901923D1032046C3
:1005A00001F076F8002875D1222084F8410040201F
:1005B00084F8420000256564C4F82480678565637B
:1005C000CDE9009653465A462046049901F016F8A4
:1005D00028B1606C84F8405004285FD05AE0618DE7
:1005E000FF274FF410504FF080784FF0007AFF292A
:1005F00004D927853A464346009005E0618D218560
:10060000009094F8282053462046049901F02EF8D3
:100610004B46002204212046009601F039F8C8BB61
:100620002068416A606A421C62620170208D401E2F
:100630000004000C2085618DA1F1010161851DD1AF
:10064000608DD8B14B46002280212046009601F0F3
:100650001FF8F8B9608DFF2806D927853A4643462A
:10066000009507E02CE019E0608D2085009594F856
:10067000282053462046049900F0F8FF608D00289A
:10068000C6D132464946204601F02BF840B1606C95
:10069000042803D0032007B000F016B80120FAE7C1
:1006A00021682020C86121684A68064B1A404A60C8
:1006B00084F8410084F8425084F840500020EAE772
:1006C0000220E8E700E800FE30BCBDE8C08F7047BC
:1006D00002480168491C01607047000004000020C6
:1006E00010B5032000F088F8002000F005F800F0B5
:1006F00017F8002010BD000010B5044607484FF45D
:100700007A710068B0FBF1F000F03DFE0022214656
:10071000501E00F051F8002010BD00000000002025
:100720001E4808B5016E41F001010166016E01F03D
:1007300001010091816D41F080518165806D00F073
:1007400080500090032000F057F8002211466FF00F
:100750000B0000F031F8002211466FF00A0000F0A3
:100760002BF8002211466FF0090000F025F8002256
:100770001146501F00F020F800221146101F00F013
:100780001BF800221146901E00F016F80022BDE86A
:1007900008401146501E00F00FB800000010024043
:1007A00000F01F02012191404009800000F1E0208B
:1007B000C0F8001170470000F0B40E4B1B680C46E7
:1007C000C3F30223C3F10705042D00D90425191D25
:1007D000072901D2002300E0DB1E012606FA05F1FD
:1007E000491E214099409E40761E16403143F0BC80
:1007F00001F05EB80CED00E0064900F00702086861
:100800004FF6FF03184040EA0220034A10430860F5
:10081000704700000CED00E00000FA051549B0F546
:10082000007F0868C0F3412009D0022805D008687D
:1008300020F4C06040F48060086000207047012808
:10084000FBD0086820F4C06040F4007008600A48DB
:100850000A4A0068B0FBF2F03222504300E0401E2A
:1008600010B14A695205FAD448694005E5D503201C
:1008700070470000007000400000002040420F0060
:100880000248416841F400714160704700700040C7
:100890000248006800F4C06070470000007000402B
:1008A0002DE9F84F044600270088EC4D3E4601052F
:1008B00004F1200B1DD5A06E78B1B0F5800F11D0DA
:1008C000B0F5000F04D0B0F5400F22D001270FE0A3
:1008D000E86840F48030E8601BE00021201D00F053
:1008E000F9FF03E00021584601F08AF8070010D014
:1008F0003E462088C00426D5E06EC0B1B0F1807FAE
:100900001AD0B0F1007F0DD0B0F1407F19D001278F
:1009100018E0D5F88800A16E20F440000843C5F81F
:100920008800E6E7E86840F48030E86009E00021EC
:10093000201D00F0CFFF03E00021584601F060F8D1
:100940000746F7B13E46206880033AD5A86D4FF0C0
:100950000008C00009D4A86D40F08050A865A86DBB
:100960004FF0010800F080500090DFF8F4A2DAF8B0
:10097000001041F48071CAF80010FFF739FD81467C
:1009800010E0D5F88800E16E20F040700843C5F80B
:100990008800D8E7FFF72CFDA0EB0900022801D959
:1009A000032705E0DAF80000C005F3D5002F7CD05E
:1009B0004FEA0706B8F1000F03D0A86D20F0805071
:1009C000A8652078C00707D0D5F88800A16B20F073
:1009D00003000843C5F888002078800707D5D5F8BC
:1009E0008800E16B20F00C000843C5F888002078EF
:1009F000400707D5D5F88800216C20F03000084367
:100A0000C5F888002078000707D5D5F88800616C04
:100A100020F0C0000843C5F888002078C00607D53C
:100A2000D5F88800A16C20F440700843C5F8880010
:100A30002078800607D5D5F88800E16C20F4406066
:100A40000843C5F888002088800507D5D5F88800B8
:100A5000216E20F440200843C5F888002088400516
:100A600007D5D5F88800616E20F440100843C5F81A
:100A700088002078400607D5D5F88800216D20F43D
:100A800040500843C5F888002078000607D5D5F8FF
:100A90008800616D20F440400843C5F88800208834
:100AA000C00509D5D5F8880000E027E0A16D20F445
:100AB00040300843C5F888002068C00207D5D5F843
:100AC0009C00E16D20F003000843C5F89C002088DD
:100AD0004FF0006780044FF0806850D5D5F888004B
:100AE000216F20F040600843C5F88800206FB842AD
:100AF0003DD1E86840F48010E86040E0D5F890000F
:100B000010F4407015D0D4F88810814211D0D5F877
:100B10009000D5F8901020F4407041F48031C5F871
:100B20009010D5F8901021F48031C5F89010C5F8D8
:100B30009000C00711D0FFF75BFC074641F28839EF
:100B400007E000BFFFF754FCC11B494501D903264C
:100B500030E7D5F890008007F4D5D5F89000D4F8A8
:100B6000881020F440700843C5F8900022E7404503
:100B700005D10121201D00F0ADFE00B10646206820
:100B8000000317D5D5F88800616F20F04060084356
:100B9000C5F88800606FB84204D1E86840F480105E
:100BA000E86007E0404505D10121201D00F092FEDC
:100BB00000B106462068400317D5D5F88800A16F1C
:100BC00020F040600843C5F88800A06FB84204D107
:100BD000E86840F48010E86007E0404505D1012155
:100BE000201D00F077FE00B10646208840041AD58B
:100BF000D5F88800E16F20F040500843C5F8880020
:100C0000E06FB0F1805F03D0B0F1005F05D00AE083
:100C10000221201D00F05EFE03E00221584600F094
:100C2000EFFE00B106462088000408D5D5F88800FC
:100C3000D4F8801020F080400843C5F88800206870
:100C4000C00307D555F8880FD4F8841020F0004071
:100C500008432860304600F005B80000001002404C
:100C60000070004018BCBDE8E08F00002DE9F0479F
:100C7000DFF85C8105460E46D8F8000000F007005A
:100C8000B0420CD2D8F8001021F007013143C8F867
:100C90000010D8F8000000F00700B04274D12878A6
:100CA0004C4C800705D5A068A96820F0F0000843E7
:100CB000A0602878C00756D06868022818D003289A
:100CC00019D02168D0B1490500295DDAA16821F069
:100CD00003010143A160FFF78BFB6968074641F2FE
:100CE0008830022912D003291ED0814649B335E04D
:100CF00021688903E8E721688901E5E78907E3E7D7
:100D0000FFF776FBC11B494501D924E08146A06865
:100D1000C0F381000228F3D125E000BFFFF768FB94
:100D2000C11B494501D916E08146A068C0F3810086
:100D30000328F3D117E000BFFFF75AFBC11B494559
:100D400009D8A06810F00C0FF6D10CE0FFF750FBAB
:100D5000C11B494502D90320BDE8F087A068C0F354
:100D600081000128F2D1D8F80010404601F00701B7
:100D7000B1420BD9016821F00701314301600068DD
:100D800000F00700B04201D00120E5E728784007D5
:100D900005D5A068E96820F4E0600843A0602878E1
:100DA000000706D5A068296920F4605040EAC10018
:100DB000A06000F01BF8A168074AC1F30311515C61
:100DC000C840064908600020FFF796FC0020C3E7F2
:100DD000002002400010024078200008000000209F
:100DE00001480068704700000000002030B52D4920
:100DF000002318468A682C4C12F00C0F4FEA640549
:100E000014D08A68C2F38102032A04D1CA6802F0AE
:100E10000302012A0AD08A68C2F38102012A19D08A
:100E20008A68C2F38102022A16D016E00A68120705
:100E300004D4D1F89420C2F3032202E00A68C2F37A
:100E400003121A4B53F822308A6812F00C0F04D1A7
:100E5000184602E0204600E028468A68C2F3810274
:100E6000032A1DD1C868CA6800F00300C2F3021249
:100E7000521C022804D0032805D0B3FBF2F004E092
:100E8000B4FBF2F001E0B5FBF2F0CA68C968C2F346
:100E900006225043C1F34161491C4900B0FBF1F007
:100EA00030BD0000001002400024F400882000083B
:100EB0002DE9F84304460078FE4DC0065DD5A868CC
:100EC00010F00C0F0AD0A0690028286871D040F0FB
:100ED00001002860FFF78CFA064654E02868800776
:100EE00002D5A06900287DD0216A2868000703D5B3
:100EF000286800F0F00004E0D5F89400F02202EA3F
:100F00001010814216D9084600F0FEFD002869D174
:100F1000286840F0080028602868216A20F0F00066
:100F2000084328606868E16920F47F4040EA0120B6
:100F3000686015E0286840F0080028602868216A89
:100F400020F0F000084328606868E16920F47F40E1
:100F500040EA01206860206A00F0D6FD0028D6D162
:100F6000FFF744FFA968D44AC1F30311515CC8409C
:100F7000D24908600020FFF7BFFB29E0FFF738FAED
:100F8000801B02287ED828688007F7D5286840F0A3
:100F9000080028602868216A20F0F00008432860D3
:100FA0006868E16920F47F4040EA012068600FE052
:100FB000FFE720F001002860FFF71AFA064604E078
:100FC000FFF716FA801B0228DCD828688007F7D4C0
:100FD0002078C0074AD0A868C0F3810002281FD03B
:100FE000A86800E098E0C0F38100032803D1E86816
:100FF000C043800714D06068B0F5803F17D0B0F5CB
:10100000A02F286817D020F480302860286820F4AA
:10101000802028606068E0B1FFF7EAF9064614E036
:101020002868800322D56068002875D01EE02868F3
:1010300040F48030EDE740F480202860F7E700BFFF
:10104000FFF7D6F9801B64289CD828688003F7D561
:101050000CE0FFF7CDF9064605E000BFFFF7C8F941
:10106000801B64288ED828688003F7D420788007F6
:1010700042D5A868C0F38100012816D0A868C0F343
:10108000810000E0CEE0032804D1E86800F003000E
:1010900002280AD0E068002828681DD040F480703B
:1010A0002860FFF7A5F906460BE0286840050BD538
:1010B000E0680028B9D007E0FFF79AF9801B022802
:1010C000C2D828684005F7D56868217C20F0FE402A
:1010D00040EA016068600FE020F480702860FFF74C
:1010E00087F9064605E000BFFFF782F9801B02285A
:1010F000AAD828684005F7D42078000729D5606968
:101100000028D5F8940013D040F00100C5F89400F1
:10111000FFF76EF9064606E023E100BFFFF768F926
:10112000801B02287ED8D5F894008007F6D510E001
:1011300020F00100C5F89400FFF75AF9064604E0D4
:10114000FFF756F9801B02286CD8D5F89400800769
:10115000F6D42078400761D5A86D0026C00008D4D9
:10116000A86D40F08050A865A86D012600F0805061
:10117000009053480168C90511D40168804641F4C4
:1011800080710160FFF734F9074604E0FFF730F99A
:10119000C01B022846D8D8F80000C005F6D5A068C4
:1011A000012815D00528D5F8900016D020F00100B0
:1011B000C5F89000D5F8900020F00400C5F8900024
:1011C000A06841F28838B8B1FFF712F907460EE07F
:1011D000D5F8900040F00100F0E740F00400C5F8B9
:1011E0009000F5E7FFF704F9C11B41451AD8D5F87F
:1011F00090008007F6D50CE0FFF7FAF8074604E008
:10120000FFF7F6F8C11B41450CD8D5F890008007D0
:10121000F6D41EB1A86D20F08050A8652078800615
:1012200029D500E084E0606A0028D5F8980011D044
:1012300040F00100C5F89800FFF7DAF8064604E030
:10124000FFF7D6F8801B022872D8D5F898008007DF
:10125000F6D510E020F00100C5F89800FFF7C8F8B7
:10126000064604E0FFF7C4F8801B022871D8D5F8C1
:1012700098008007F6D4A06AF0B3A968C1F3810191
:1012800003296FD00228286820F0807028601BD0C6
:101290002868000106D42868800003D4E86820F09C
:1012A0000300E860E86807490840E860FFF7A0F835
:1012B000044651E0001002407820000800000020A1
:1012C00000700040FFFFEEFEFFF792F8064604E0D4
:1012D000FFF78EF8801B02283BD828688001F7D4DE
:1012E000206B54F82C1F000110380843218A1E4A35
:1012F000490802EB415100E031E0A26841EA0221D5
:101300000843217D4FF07E42490802EB41610843CA
:10131000217B40EAC160E860286840F08070286066
:10132000E86840F08070E860FFF762F8044606E085
:101330000FE000BFFFF75CF8001B022809D82868FF
:101340008001F7D50BE000BFFFF752F8001B022821
:1013500002D90320BDE8F88328688001F4D4002076
:10136000F8E7FFE70120F5E70000E0FF4FF0E0219C
:101370000428086903D020F004000861704740F099
:101380000400FAE7704710B5401EB0F1807F01D32A
:10139000012010BD4FF0E02460610F21601700F0C4
:1013A00087FA0020A06107202061002010BD10B541
:1013B000FFF7E8FF10BD000030B590F83820012A93
:1013C0001FD0012280F838200268536894680E4DBF
:1013D000AA4202D00D4DAA4203D123F470054B68F6
:1013E0002B4323F070050B6889682B4324F080049D
:1013F0002143536002689160002180F8381008464C
:1014000030BD022030BD0000002C014000340140FE
:1014100010B5040003D094F8390010B107E00120A2
:1014200010BD002084F83800204600F00CF802209F
:1014300084F83900211D206800F040FC012084F868
:101440003900002010BD70470168CA6842F00102EF
:10145000CA600068016841F0010101600020704726
:1014600070B5044690F83800012817D0012584F89B
:101470003850022084F8390022689068364E304097
:1014800020F47F4090600868502839D00DDC202877
:101490005BD005DC98B3102843D153E0022070BD27
:1014A000302855D040283CD141E0602830D0702809
:1014B0000CD0B0F5805F03D0B0F5005F31D112E001
:1014C00020688168244A7032114016E0CB68D1E967
:1014D0000121206800F04EFC21688868304040F00F
:1014E000770088601DE0CB68D1E90121206800F019
:1014F00041FC2068816841F48041816011E01EE078
:10150000CA684968206800F047FC5021206806E05E
:10151000CA684968206800F050FC6021206800F02B
:1015200033FC84F83950002084F8380070BDCA6854
:101530004968206800F030FC40212068EFE7002176
:101540002068ECE710212068E9E720212068E6E721
:1015500030212068E3E7000088FFFEFFFEE7016816
:101560008A69D243920701D400228A6200688169A5
:10157000C943C90703D0816941F001018161704706
:101580002DE9F0410446006890460E468069C0434C
:10159000C0062ED40025202720688069C04380061D
:1015A00011D5701CF8D02EB1FEF722FFA0EB080079
:1015B000B042F1D984F8417084F8425084F8405028
:1015C0000320BDE8F08121681020C8612068C76150
:1015D0002046FFF7C4FF54F8440B4168064A114007
:1015E0004160042044F820096777A577257701201A
:1015F000E7E70020E5E7000000E800FE2DE9F843FA
:1016000004461646DDE908974FF400509846DAB2D2
:1016100000900023204600F029F83A46494620462B
:1016200000F086F818B1606C04281CD018E0F5B200
:10163000B8F1010F09D02168300A88623A4649465C
:10164000204600F075F80028EDD1206885624B46F1
:10165000002240212046009700F01AF8002800D010
:101660000320BDE8F8830120FBE7000070B50568A2
:10167000049E6C6805480440C1F3090040EA02403A
:10168000184330432043686070BD0000009800FCA0
:101690002DE9F0411D4617460E460446DDF8188038
:1016A00013E0681C11D02DB1FEF7A2FEA0EB0800DC
:1016B000A8420AD9202084F84100002084F8420082
:1016C00084F840000320BDE8F0812068806936EA94
:1016D000000004D00020B842E3D00020F3E701204E
:1016E000F9E770B516460D4604461AE0324629461B
:1016F0002046FFF745FF08B1012070BD25B1FEF778
:1017000077FE801BA8420CD954F8440F40F020000B
:1017100044F80409202060700020A070207003208D
:1017200070BD20688069C0438006DFD4002070BD92
:1017300070B516460D4604461CE032462946204642
:10174000FFF71EFF08B1012070BD681C12D025B143
:10175000FEF74EFE801BA8420CD954F8440F40F00F
:10176000200044F80409202060700020A070207040
:10177000032070BD20688069C0438007DDD400204D
:1017800070BD0000164810B514490160154941604C
:1017900000210122C0E90212016141618161C16140
:1017A0000162FEF77FFE18B15F210FA000F018FB69
:1017B00000210B48FEF722FE18B166210AA000F0B6
:1017C0000FFB00210648FEF744FE002805D0BDE8C7
:1017D00010406D2104A000F003BB10BD0054004078
:1017E00050000020EC9C90102E2E5C2E2E5C4B4165
:1017F0004D654C656F6E2D6C69625C6B616D616DE2
:10180000695F6C3439365F74656D702E630000005B
:1018100030B51B4C87B04FF080402060FFF7E0FAF6
:101820004FF4C871B0FBF1F04FF0FF3101EBD00085
:101830000025C4E901050120C4E903052046FFF79E
:10184000E7FD18B1A2210FA000F0CAFA4FF48050B2
:10185000039003A90A48FFF703FE18B1A82109A0C5
:1018600000F0BEFA0095694605480295FFF7A4FD11
:10187000002803D0AF2103A000F0B2FA07B030BDBA
:10188000140000202E2E5C2E2E5C4B414D654C65C5
:101890006F6E2D6C69625C6B616D616D695F6C343C
:1018A00039365F377365672E63000000FEE77047C7
:1018B0000907090E002806DA00F00F0000F1E02009
:1018C00080F8141D704700F1E02080F80014704784
:1018D000704700002DE9F041444C05468846E06819
:1018E0000026810728680DD0E16801F003018142DC
:1018F00016D1A8B1E0686968C0F30210401C8842A4
:101900000ED120E0012804D0022805D0032807D1F9
:1019100008E02168890701E021684905002907DB03
:1019200001265FE02168890302D421684903F5E7B5
:10193000E1686A686FF00F0321F0730103EB021294
:1019400011430143E160206820F080602060FEF7D1
:101950004FFD074605E000BFFEF74AFDC01B022809
:1019600037D820680001F7D4B8F1000F18D0B8F1CB
:10197000010F1DD0287D4FF07E41400801EB4060F3
:10198000A96840EA01202169194A114008432061F1
:10199000206840F080602060FEF72AFD07461AE0CC
:1019A000A868297B000240EAC1602169114AECE77E
:1019B000288A1149400801EB4050A96840EA0120FB
:1019C00021690E4AE1E700BFFEF712FDC01B0228A5
:1019D00001D9032606E020680001F5D52069A96930
:1019E000084320613046BDE8F0810000001002404D
:1019F000FF80FFF9FF80FF070000E0FFFF809FFFEF
:101A00002DE9F0413D4C06468846E06800258107F7
:101A100030680DD0E16801F00301814216D1A8B110
:101A2000E0687168C0F30210401C88420ED120E0CB
:101A3000012804D0022805D0032807D108E0216836
:101A4000890701E021684905002907DB012551E0EC
:101A50002168890302D421684903F5E7E1687268C7
:101A60006FF00F0321F0730103EB021211430143E6
:101A7000E160206820F080502060FEF7B9FC074646
:101A800005E000BFFEF7B4FCC01B022829D820687F
:101A90008000F7D4B8F1000F15D0307C4FF07E41B4
:101AA000400801EB4060B16840EA01206169144AD6
:101AB000114008436061206840F080502060FEF7CC
:101AC00097FC07460FE0B068F1680002090940EA98
:101AD000414061690B4AEBE7FEF78AFCC01B022814
:101AE00001D9032506E020688000F5D56069716999
:101AF000084360612846BDE8F08100000010024004
:101B0000FF80FFF9FF80FDFFF8B51C4D064600245D
:101B1000A86DC00002D5FEF7BBFE0DE0A86D40F039
:101B20008050A865A86D00F080500090FEF7B0FED0
:101B3000A96D21F08051A965B0F5007F04D0802EF9
:101B400007D94FF003040AE0802E08D9A02E01D84F
:101B500004E001D1022402E0702E00D101240848E3
:101B6000016821F0070121430160006800F00700CF
:101B7000A04201D00120F8BD0020F8BD00100240B5
:101B800000200240704710B5FEF7A2FDBDE81040EE
:101B9000FFF70DBC10B596B0102001210090002475
:101BA00006916020CDE907400220CDE90A010C91A1
:101BB0002821CDE90D100F9010906846FFF778F9B5
:101BC00000B1FEE70F2011900320CDE91204149418
:101BD000042111A81594FFF749F800B1FEE74FF46E
:101BE0000070FEF71BFE00B1FEE7FFF7F9F84FF4B7
:101BF0007A71B0FBF1F0FFF7C6FB0420FFF7B6FBEC
:101C000000221146501EFEF7D7FD16B010BD000091
:101C10000D48016841F4700101600C48016841F011
:101C200001010160002181600268094B1A400260D5
:101C30008214C260026822F480220260816102493B
:101C4000C00380390860704788ED00E00010024052
:101C5000FFFFF6EA70B514496FF0010009680861EA
:101C6000124D00223C212846FEF7BDFB104E0022FB
:101C700040F2FF213046FEF7B6FB0E480122841EDB
:101C8000217830F811103046FEF7ADFB0A48217874
:101C90000122415C2846FEF7A6FB2078401C00F09C
:101CA0000300207070BD00001400002000040048F4
:101CB000001800480A000020B82000082DE9F0476D
:101CC0000268244B244D254E254F264C4FF0804A68
:101CD000984209D0504507D0A84205D0B04203D061
:101CE000B84201D0A04204D122F0700C4A6842EA06
:101CF0000C02DFF874C0DFF87480DFF8749098424B
:101D00000FD050450DD0A8420BD0B04209D0B842F8
:101D100007D0A04205D0604503D0404501D04845DA
:101D200003D122F44075CA682A4302608A68C262FD
:101D30000A688262984207D0A04205D0604503D06D
:101D4000404501D0484501D1096901630121416144
:101D5000BDE8F087002C014000040040000800406E
:101D6000000C0040003401400040014000440140AC
:101D70000048014010B5846842EA032224F47F44FD
:101D80000A432243826010BD826822F070020A4337
:101D900042F007018160704710B5036A046A24F0BD
:101DA00001040462846924F0F00444EA021423F07C
:101DB0000A020A438461026210BD10B5036A23F06F
:101DC000100303628369046A23F4704343EA023216
:101DD00024F0A00343EA01118261016210BDFEE715
:101DE000FEE702E008C8121F08C1002AFAD17047B6
:101DF0007047002001E001C1121F002AFBD170478B
:101E000010B542F20F71884201D9012010BD0A229B
:101E1000B0FBF2F102FB1101124BB0FBF2F05C5C83
:101E200011490C8028B1B0FBF2F402FB14041C5DD4
:101E300000E00024B0FBF2F04C8028B1B0FBF2F4DB
:101E400002FB14041C5D00E00024B0FBF2F08C8067
:101E500020B1B0FBF2F402FB1400185CC880002033
:101E600010BD0000BC2000080A0000202DE9F0434E
:101E70002F4C87B0E06C40F00400E064E06C00F0B0
:101E800004000590E06C40F00200E064E06C00F0BB
:101E900002000590E06C40F04000E064E06C00F06F
:101EA00040000590FEF7ECFCE06C40F00100E064BF
:101EB000E06CDFF8808000F00100059000223C21FA
:101EC0004046FEF790FADFF8709040F27F2700223C
:101ED00039464846FEF787FA3C2000900126002547
:101EE000CDE90165694640460395FEF79DF90097E7
:101EF000CDE90165694648460395FEF795F9A06D61
:101F000040F00100A065A06D00F001000590FFF712
:101F10007FFC0A48FFF798FA002211461C20FEF7C2
:101F20004BFC1C20FEF73CFC07B0BDE8F083000032
:101F3000001002400004004800180048140000206F
:101F4000FEF7CEFBFFF726FEFFF790FF00F00CF840
:101F50004FF47A7400F062F880B2FFF751FF204628
:101F6000FEF754F9F6E7000030B5A9B0002540208F
:101F7000149500906846FEF793FC18B122211AA030
:101F8000FFF72EFF224CE06C40F04000E064E06C74
:101F900000F040002890FEF773FC4FF400402390BF
:101FA0001C48CDE924051C4D23A92846FEF73CF921
:101FB0004FF4C0402390122024900120259003204C
:101FC00026900420279023A92846FEF72DF9A06D1E
:101FD00040F40010A065A06D00F400102890FFF7F9
:101FE000D1FB29B030BD00002E2E5C2E2E5C4B4163
:101FF0004D654C656F6E2D6C69625C6B616D616DDA
:10200000695F6C3439365F74656D702E6300000053
:102010000010024000001110001800481FB54FF4D6
:102020007A73012103A88DE80B000B460022902152
:102030000648FEF793FA18B1462105A0FFF7D0FE37
:102040009DF80C0004B040B210BD0000500000200C
:102050002E2E5C2E2E5C4B414D654C656F6E2D6CAB
:1020600069625C6B616D616D695F6C3439365F7498
:10207000656D702E6300000000000000000000008D
:102080000102030406070809A0860100400D0300B1
:10209000801A060000350C0040420F0080841E00AC
:1020A00000093D0000127A000024F40000366E01A1
:1020B0000048E801006CDC02201008043F065B4F7A
:1020C000666D7D077F6F0000E8200008000000209B
:1020D00014000000E21D0008FC200008140000208D
:1020E0008C040000F21D000800093D000000000003
:0C20F000000000000000000000000000E4
:04000005080001AD41
:00000001FF
