:020000040800F2
:1000000068040020C101000837120008B910000878
:100010003512000809020008571800080000000007
:10002000000000000000000000000000D9120008DD
:100030000B0200080000000059120008DD12000841
:10004000DB010008DB010008DB010008DB01000820
:10005000DB010008DB010008DB010008DB01000810
:10006000DB010008DB010008DB010008DB01000800
:10007000DB010008DB010008DB010008DB010008F0
:10008000DB010008DB010008DB010008DB010008E0
:10009000DB010008DB010008DB010008DB010008D0
:1000A000DB010008DB010008DB010008DB010008C0
:1000B000DB010008DB010008DB010008DB010008B0
:1000C000DB010008DB010008DB010008DB010008A0
:1000D000DB010008DB010008DB010008DB01000890
:1000E000DB010008DB010008DB010008DB01000880
:1000F000DB010008DB010008DB010008DB01000870
:10010000DB010008DB010008DB010008DB0100085F
:10011000DB010008DB010008DB010008DB0100084F
:10012000DB010008DB010008DB010008DB0100083F
:10013000DB010008DB010008DB010008DB0100082F
:10014000DB010008DB010008DB010008DB0100081F
:10015000DB010008DB010008DB010008DB0100080F
:10016000DB010008DB010008DB010008DB010008FF
:10017000DB010008DB010008DB01000800000000D3
:10018000DB010008DB010008DB010008DB010008DF
:10019000DB010008DB010008DB010008DB010008CF
:1001A000DB010008DB010008DB010008DFF80CD0F0
:1001B00000F018F800480047E5180008680400201F
:1001C0000648804706480047FEE7FEE7FEE7FEE7F1
:1001D000FEE7FEE7FEE7FEE7FEE7FEE7C9130008DD
:1001E000AD010008064C074D06E0E06840F0010351
:1001F00094E8070098471034AC42F6D3FFF7DAFFD3
:100200006C1900088C190008FEE7704770B50446A9
:1002100000F0EAF80546601C00D0641C00F0E4F829
:10022000401BA042FAD370BD2DE9F84FDFF888B12A
:1002300000234FF0010C4FF0030A4FF00F090BF1B0
:10024000040EB1E00CFA03F632406FD04C68022C79
:1002500001D0122C11D1DC0800EB84073C6A5D0749
:10026000ED0E09FA05F824EA0804D1F8108008FA1E
:1002700005F848EA0408C7F8208007685D0091F88F
:1002800004800AFA05F408F00308A74308FA05F801
:1002900048EA0708C0F800804F68012F05D0022FF8
:1002A00003D0112F01D0122F10D1D0F80880CF68C1
:1002B00028EA0408AF4047EA080787604768B74361
:1002C0000E79C6F300169E403E434660C668A643BC
:1002D0008C68AC403443C4604C68E40063D5374C50
:1002E000256E45F001052566246E23F0030504F014
:1002F00001040094324C2F19BD689C07260F09FA9F
:1003000006F4A543B0F1904F04D02E4CA04203D187
:10031000012421E000241FE02B4CA04201D1022443
:100320001AE02A4CA04202D1032415E03BE0284CFD
:10033000A04201D104240FE0264CA04201D10524A3
:100340000AE0254CA04201D1062405E0234CA0423E
:1003500001D1072400E00824B4402C43BC60DBF842
:1003600000405D464E689443F60300D514432C606C
:10037000DEF8004075464E689443B60300D514433A
:100380002C600D4D08352C684E689443F60200D55C
:1003900014432C60084D0C352C684E689443B6020B
:1003A00000D514432C605B1C0A6832FA03F47FF416
:1003B00049AF00F015B800000004014000100240F1
:1003C000000001400004004800080048000C0048FC
:1003D000001000480014004800180048001C0048A5
:1003E00018BCBDE8E08F00000148006870470000BD
:1003F0000400002002480168491C016070470000A9
:100400000400002010B5032000F07CF8002000F06C
:1004100005F800F017F8002010BD000010B50446E4
:1004200007484FF47A710068B0FBF1F000F043FC2C
:1004300000222146501E00F045F8002010BD0000AB
:10044000080000201E4808B5016E41F00101016658
:10045000016E01F001010091816D41F080518165D3
:10046000806D00F080500090032000F04BF80022D7
:1004700011466FF00B0000F025F8002211466FF0D6
:100480000A0000F01FF8002211466FF0090000F08A
:1004900019F800221146501F00F014F800221146EE
:1004A000101F00F00FF800221146901E00F00AF80D
:1004B0000022BDE808401146501E00F003B80000BD
:1004C00000100240F0B40E4B1B680C46C3F302232D
:1004D000C3F10705042D00D90425191D072901D2F0
:1004E000002300E0DB1E012606FA05F1491E21402B
:1004F00099409E40761E16403143F0BC00F09CBEF1
:100500000CED00E0064900F0070208684FF6FF0313
:10051000184040EA0220034A104308607047000078
:100520000CED00E00000FA051549B0F5007F086801
:10053000C0F3412009D0022805D0086820F4C0602B
:1005400040F480600860002070470128FBD00868F4
:1005500020F4C06040F4007008600A480A4A00684D
:10056000B0FBF2F03222504300E0401E10B14A6965
:100570005205FAD448694005E5D5032070470000CC
:10058000007000400800002040420F000248006850
:1005900000F4C06070470000007000402DE9F04793
:1005A000DFF85C8105460E46D8F8000000F0070031
:1005B000B0420CD2D8F8001021F007013143C8F83E
:1005C0000010D8F8000000F00700B04274D128787D
:1005D0004C4C800705D5A068A96820F0F0000843BE
:1005E000A0602878C00756D06868022818D0032871
:1005F00019D02168D0B1490500295DDAA16821F040
:1006000003010143A160FFF7EFFE6968074641F26D
:100610008830022912D003291ED0814649B335E023
:1006200021688903E8E721688901E5E78907E3E7AD
:10063000FFF7DAFEC11B494501D924E08146A068D5
:10064000C0F381000228F3D125E000BFFFF7CCFE04
:10065000C11B494501D916E08146A068C0F381005D
:100660000328F3D117E000BFFFF7BEFEC11B4945C9
:1006700009D8A06810F00C0FF6D10CE0FFF7B4FE1B
:10068000C11B494502D90320BDE8F087A068C0F32B
:1006900081000128F2D1D8F80010404601F007018E
:1006A000B1420BD9016821F00701314301600068B4
:1006B00000F00700B04201D00120E5E728784007AC
:1006C00005D5A068E96820F4E0600843A0602878B8
:1006D000000706D5A068296920F4605040EAC100EF
:1006E000A06000F01BF8A168074AC1F30311515C38
:1006F000C840064908600020FFF790FE0020C3E7CD
:1007000000200240001002402C19000808000020C0
:1007100001480068704700000800002030B52D49EE
:10072000002318468A682C4C12F00C0F4FEA64051F
:1007300014D08A68C2F38102032A04D1CA6802F085
:100740000302012A0AD08A68C2F38102012A19D061
:100750008A68C2F38102022A16D016E00A681207DC
:1007600004D4D1F89420C2F3032202E00A68C2F351
:1007700003121A4B53F822308A6812F00C0F04D17E
:10078000184602E0204600E028468A68C2F381024B
:10079000032A1DD1C868CA6800F00300C2F3021220
:1007A000521C022804D0032805D0B3FBF2F004E069
:1007B000B4FBF2F001E0B5FBF2F0CA68C968C2F31D
:1007C00006225043C1F34161491C4900B0FBF1F0DE
:1007D00030BD0000001002400024F4003C19000865
:1007E0002DE9F84304460078FE4DC0065DD5A868A3
:1007F00010F00C0F0AD0A0690028286871D040F0D2
:1008000001002860FFF7F0FD064654E028688007E5
:1008100002D5A06900287DD0216A2868000703D589
:10082000286800F0F00004E0D5F89400F02202EA15
:100830001010814216D9084600F010FD002869D139
:10084000286840F0080028602868216A20F0F0003D
:10085000084328606868E16920F47F4040EA01208D
:10086000686015E0286840F0080028602868216A60
:1008700020F0F000084328606868E16920F47F40B8
:1008800040EA01206860206A00F0E8FC0028D6D128
:10089000FFF744FFA968D44AC1F30311515CC84073
:1008A000D24908600020FFF7B9FD29E0FFF79CFD61
:1008B000801B02287ED828688007F7D5286840F07A
:1008C000080028602868216A20F0F00008432860AA
:1008D0006868E16920F47F4040EA012068600FE029
:1008E000FFE720F001002860FFF77EFD064604E0E8
:1008F000FFF77AFD801B0228DCD828688007F7D430
:100900002078C0074AD0A868C0F3810002281FD011
:10091000A86800E098E0C0F38100032803D1E868EC
:10092000C043800714D06068B0F5803F17D0B0F5A1
:10093000A02F286817D020F480302860286820F481
:10094000802028606068E0B1FFF74EFD064614E0A5
:100950002868800322D56068002875D01EE02868CA
:1009600040F48030EDE740F480202860F7E700BFD6
:10097000FFF73AFD801B64289CD828688003F7D5D0
:100980000CE0FFF731FD064605E000BFFFF72CFD48
:10099000801B64288ED828688003F7D420788007CD
:1009A00042D5A868C0F38100012816D0A868C0F31A
:1009B000810000E0CEE0032804D1E86800F00300E5
:1009C00002280AD0E068002828681DD040F4807012
:1009D0002860FFF709FD06460BE0286840050BD5A7
:1009E000E0680028B9D007E0FFF7FEFC801B022872
:1009F000C2D828684005F7D56868217C20F0FE4001
:100A000040EA016068600FE020F480702860FFF722
:100A1000EBFC064605E000BFFFF7E6FC801B022862
:100A2000AAD828684005F7D42078000729D560693E
:100A30000028D5F8940013D040F00100C5F89400C8
:100A4000FFF7D2FC064606E023E100BFFFF7CCFC2F
:100A5000801B02287ED8D5F894008007F6D510E0D8
:100A600020F00100C5F89400FFF7BEFC064604E044
:100A7000FFF7BAFC801B02286CD8D5F894008007D9
:100A8000F6D42078400761D5A86D0026C00008D4B0
:100A9000A86D40F08050A865A86D012600F0805038
:100AA000009053480168C90511D40168804641F49B
:100AB00080710160FFF798FC074604E0FFF794FCA3
:100AC000C01B022846D8D8F80000C005F6D5A0689B
:100AD000012815D00528D5F8900016D020F0010087
:100AE000C5F89000D5F8900020F00400C5F89000FB
:100AF000A06841F28838B8B1FFF776FC07460EE0EF
:100B0000D5F8900040F00100F0E740F00400C5F88F
:100B10009000F5E7FFF768FCC11B41451AD8D5F8EE
:100B200090008007F6D50CE0FFF75EFC074604E076
:100B3000FFF75AFCC11B41450CD8D5F8900080073F
:100B4000F6D41EB1A86D20F08050A86520788006EC
:100B500029D500E084E0606A0028D5F8980011D01B
:100B600040F00100C5F89800FFF73EFC064604E09F
:100B7000FFF73AFC801B022872D8D5F8980080074E
:100B8000F6D510E020F00100C5F89800FFF72CFC26
:100B9000064604E0FFF728FC801B022871D8D5F830
:100BA00098008007F6D4A06AF0B3A968C1F3810168
:100BB00003296FD00228286820F0807028601BD09D
:100BC0002868000106D42868800003D4E86820F073
:100BD0000300E860E86807490840E860FFF704FCA4
:100BE000044651E0001002402C19000808000020C3
:100BF00000700040FFFFEEFEFFF7F6FB064604E044
:100C0000FFF7F2FB801B02283BD828688001F7D44D
:100C1000206B54F82C1F000110380843218A1E4A0B
:100C2000490802EB415100E031E0A26841EA0221AB
:100C30000843217D4FF07E42490802EB41610843A1
:100C4000217B40EAC160E860286840F0807028603D
:100C5000E86840F08070E860FFF7C6FB044606E0F5
:100C60000FE000BFFFF7C0FB001B022809D828686F
:100C70008001F7D50BE000BFFFF7B6FB001B022891
:100C800002D90320BDE8F88328688001F4D400204D
:100C9000F8E7FFE70120F5E70000E0FF4FF0E02173
:100CA0000428086903D020F004000861704740F070
:100CB0000400FAE7704710B5401EB0F1807F01D301
:100CC000012010BD4FF0E02460610F21601700F09B
:100CD000B3FA0020A06107202061002010BD10B5EC
:100CE000FFF7E8FF10BD000030B590F83820012A6A
:100CF0001FD0012280F838200268536894680E4D96
:100D0000AA4202D00D4DAA4203D123F470054B68CC
:100D10002B4323F070050B6889682B4324F0800473
:100D20002143536002689160002180F83810084622
:100D300030BD022030BD0000002C014000340140D5
:100D400010B5040003D094F8390010B107E0012079
:100D500010BD002084F83800204600F00DF8022075
:100D600084F83900211D206800F050FB012084F830
:100D70003900002010BD000008B50068064988420F
:100D800008D10648816D41F004018165806D00F055
:100D90000400009008BD0000000800400010024060
:100DA000022180F8391001680A6842F001020A60E5
:100DB000012180F8391000207047000070B504460A
:100DC00090F83800012817D0012584F83850022007
:100DD00084F8390022689068364E304020F47F4015
:100DE00090600868502839D00DDC20285BD005DCE5
:100DF00098B3102843D153E0022070BD302855D05D
:100E000040283CD141E0602830D070280CD0B0F5AB
:100E1000805F03D0B0F5005F31D112E020688168B7
:100E2000244A7032114016E0CB68D1E901212068D4
:100E300000F053FB21688868304040F077008860FC
:100E40001DE0CB68D1E90121206800F046FB206855
:100E5000816841F48041816011E01EE0CA68496800
:100E6000206800F0D5FC5021206806E0CA68496877
:100E7000206800F0DEFC6021206800F038FB84F878
:100E80003950002084F8380070BDCA68496820686D
:100E900000F0BEFC40212068EFE700212068ECE76D
:100EA00010212068E9E720212068E6E7302120684A
:100EB000E3E7000088FFFEFF30B500680D4985B00C
:100EC000884214D14FF44050022400258DE83100AF
:100ED000CDE9035469460848FFF7A6F9E0018DE81B
:100EE0003100CDE9035469460448FFF79DF905B088
:100EF00030BD000000080040000C0048000400481D
:100F000070B5044690F838000D4601280ED0012631
:100F100084F83860022084F839000C2A45D007DCB8
:100F20005AB1042A1BD0082A78D12CE0022070BDC7
:100F3000102A4ED0142A71D15DE0206800F0E0FA4A
:100F40002068816941F0080181612068816921F090
:100F500004018161206881692A69114311E02068D8
:100F600000F01CFB2068816941F400618161206808
:100F7000816921F480618161206881692A6941EA7F
:100F8000022181614AE0206800F050FB2068C169BD
:100F900041F00801C1612068C16921F00401C1610B
:100FA0002068C1692A69114311E0206800F086FBBE
:100FB0002068C16941F40061C1612068C16921F400
:100FC0008061C1612068C1692A6941EA0221C16169
:100FD00024E0206800F0ACFB2068416D41F008017E
:100FE00041652068416D21F0040141652068416D33
:100FF0002A69114311E0206800F0D2FB2068416D9E
:1010000041F4006141652068416D21F480614165D2
:101010002068416D2A6941EA0221416584F83960FE
:10102000002084F8380070BD10B5040003D094F897
:10103000390010B107E0012010BD002084F838000D
:10104000204600F00CF8022084F83900211D2068A9
:1010500000F0DCF9012084F83900002010BD704751
:1010600010B504460068012200F02CFA0D482168F2
:1010700081420BD00C48814208D00C48814205D0F7
:101080000B48814202D00B48814203D1486C40F4A6
:10109000004048642068016841F0010101600020BF
:1010A00010BD0000002C0140003401400040014010
:1010B0000044014000480140FEE700001B4800B525
:1010C000C16C87B041F01001C164C16C01F0100126
:1010D0000591C16C41F00401C164C16C01F00401CF
:1010E0000591C16C41F00801C164C16C01F00801B7
:1010F0000591C16C41F00101C164C16C01F00101B5
:101100000591C16C41F00201C164C06C694600F0F8
:101110000200059048F20F0000900020019002901C
:101120000348FFF781F807B000BD0000001002403F
:101130000010004830B5334D87B031482860FFF7C4
:10114000E7FA4FF4C831B0FBF1F00024401EC5E9C6
:101150000104FF20C5E903042846FFF7F1FD18B19B
:101160007B2129A000F078FB4FF48050039003A965
:101170002448FFF723FE18B1812123A000F06CFB67
:101180002048FFF751FF18B186211FA000F064FB33
:10119000009469461B480294FFF7A6FD18B18D2103
:1011A00019A000F059FB174860213C300022C0E92B
:1011B00000148460014604613C38FFF7A1FE18B1B9
:1011C000962111A000F048FB0E4904223C310D4845
:1011D000FFF796FE18B19B210BA000F03DFB0949DB
:1011E00008223C310748FFF78BFE18B1A02106A06A
:1011F00000F032FB0348FFF75FFE07B030BD000090
:10120000000800400C0000202E2E5C2E2E5C4B416E
:101210004D654C656F6E2D6C69625C6B616D616DC7
:10122000695F6C3439365F6C65645F7267622E6328
:1012300000000000FEE770470907090E002806DAE3
:1012400000F00F0000F1E02080F8141D704700F15D
:10125000E02080F80014704770470000F8B51C4D7E
:1012600006460024A86DC00002D5FFF78FF90DE0F7
:10127000A86D40F08050A865A86D00F080500090E7
:10128000FFF784F9A96D21F08051A965B0F5007FC1
:1012900004D0802E07D94FF003040AE0802E08D92D
:1012A000A02E01D804E001D1022402E0702E00D16A
:1012B00001240848016821F007012143016000680A
:1012C00000F00700A04201D00120F8BD0020F8BDC9
:1012D00000100240002002407047000010B5FFF7E8
:1012E00089F8FFF7FCFC17480178491E11F0FF014F
:1012F000017026D13221017013490A69D243D20705
:1013000002D0C278521CC2700A69D243920702D539
:101310004278521C42700A69D243120702D5827881
:10132000521C82700969C943490703D50021C17065
:1013300081704170C27881784078BDE8104000F03B
:10134000C5BA10BD000000200010004810B596B0CE
:10135000102001210090002406916020CDE9074073
:101360000220CDE90A010C912821CDE90D100F9042
:1013700010906846FFF734FA00B1FEE70F20119095
:101380000320CDE912041494042111A81594FFF749
:1013900005F900B1FEE74FF40070FFF7C5F800B1A2
:1013A000FEE7FFF7B5F94FF47A71B0FBF1F0FFF704
:1013B00082FC0420FFF772FC00221146501EFFF74A
:1013C00081F816B010BD00000D48016841F47001AD
:1013D00001600C48016841F0010101600021816059
:1013E0000268094B1A4002608214C260026822F44B
:1013F0008022026081610249C00380390860704721
:1014000088ED00E000100240FFFFF6EA2DE9F0470A
:101410000268244B244D254E254F264C4FF0804A20
:10142000984209D0504507D0A84205D0B04203D019
:10143000B84201D0A04204D122F0700C4A6842EABE
:101440000C02DFF874C0DFF87480DFF87490984203
:101450000FD050450DD0A8420BD0B04209D0B842B1
:1014600007D0A04205D0604503D0404501D0484593
:1014700003D122F44075CA682A4302608A68C262B6
:101480000A688262984207D0A04205D0604503D026
:10149000404501D0484501D10969016301214161FD
:1014A000BDE8F087002C0140000400400008004027
:1014B000000C004000340140004001400044014065
:1014C0000048014010B50123046A8B409C4304622C
:1014D000036A8A401343036210BD10B5846842EA70
:1014E000032224F47F440A432243826010BD8268B1
:1014F00022F070020A4342F0070181607047000049
:101500002DE9F043026A22F001020262056A436893
:1015100082691C4C25F0020522400C6822F003026F
:1015200014438A68194E2A43174D194FDFF864C0D7
:10153000DFF86490A84207D0B04205D0B84203D08B
:10154000604501D0484506D122F00808CA6842EA41
:10155000080222F00402A84207D0B04205D0B842E7
:1015600003D0604501D0484505D14D6923F440734F
:101570001D438B692B434360846149684163026268
:10158000BDE8F0838FFFFEFF002C014000340140D6
:10159000004001400044014000480140F0B5026AAB
:1015A00022F010020262056A42688369194C1B4EE0
:1015B00023400C6823F4407343EA042425F02003FD
:1015C0008D6843EA0513144DA84201D0B04206D1FC
:1015D000CF6823F0800343EA071323F04003A842B7
:1015E0000AD0B04208D00E4DA84205D00D4DA842F9
:1015F00002D00D4DA84207D14D6922F4406242EA63
:1016000085028D6942EA850242608461496881638E
:101610000362F0BDFF8FFFFE002C0140003401404B
:10162000004001400044014000480140F0B5026A1A
:1016300022F480720262056A4368C269194C1B4E2B
:1016400022400C6822F00302144325F400728D68D6
:1016500042EA0522144DA84201D0B04206D1CF681B
:1016600022F4006242EA072222F48062A8420AD0F1
:10167000B04208D00E4DA84205D00E4DA84202D06F
:101680000D4DA84207D14D6923F4405343EA051399
:101690008D6943EA05134360C4614968C16302620E
:1016A000F0BD00008FFFFEFF002C01400034014020
:1016B00000400140004401400048014030B5026A4A
:1016C00022F480520262046A4268C369124D24F413
:1016D00000542B400D6823F4407343EA05238D68C2
:1016E00044EA05340D4DA8420BD00D4DA84208D058
:1016F0000C4DA84205D00C4DA84202D00B4DA8427B
:1017000004D14D6922F4804242EA85124260C361ED
:1017100049680164046230BDFF8FFFFE002C014068
:1017200000340140004001400044014000480140B5
:1017300030B5026A22F480320262046A4268436D64
:10174000114D2B400D681D4324F400330C8943EAEE
:1017500004430E4CA0420BD00D4CA04208D00D4CBF
:10176000A04205D00C4CA04202D00C4CA04204D1A7
:101770004C6922F4803242EA04224260456549689D
:101780008165036230BD00008FFFFEFF002C014029
:101790000034014000400140004401400048014045
:1017A00030B5026A22F480120262046A4268436D14
:1017B000114D24F400142B400D6843EA05230D89D4
:1017C00044EA05540D4DA8420BD00D4DA84208D057
:1017D0000C4DA84205D00C4DA84202D00B4DA8429A
:1017E00004D14D6922F4802242EA85224260436599
:1017F0004968C165046230BDFF8FFFFE002C0140C7
:1018000000340140004001400044014000480140D4
:1018100010B5036A046A24F001040462846924F0A8
:10182000F00444EA021423F00A020A4384610262CB
:1018300010BD10B5036A23F0100303628369046AC4
:1018400023F4704343EA023224F0A00343EA011177
:101850008261016210BDFEE7FEE702E008C8121FC8
:1018600008C1002AFAD170477047002001E001C189
:10187000121F002AFBD17047124808B5C16C41F015
:101880000801C164C16C01F008010091C16C41F014
:101890000201C164C06C00F002000090FFF74AFC36
:1018A0000948FFF77DFA00210748FFF7D9FB04211B
:1018B0000548FFF7D5FBBDE8084008210248FFF7BF
:1018C000CFBB0000001002400C000020044B10B5FC
:1018D0001C6862631A6890631868C16310BD0000D9
:1018E0000C000020FEF78EFDFFF730FDFFF7E6FB52
:1018F000FFF7C2FF002211466420FFF7E7FF4FF415
:101900007A742046FEF782FC002264211046FFF71D
:10191000DDFF2046FEF77AFC002164220846FFF72F
:10192000D5FF2046FEF772FCFEE700000000000035
:10193000000000000102030406070809A086010058
:10194000400D0300801A060000350C0040420F00D5
:1019500080841E0000093D0000127A000024F4007B
:1019600000366E010048E801006CDC028C190008AA
:10197000000000200C0000005A1800089819000808
:101980000C0000205C0400006A180008320000000F
:081990000000000000093D0009
:04000005080001AD41
:00000001FF
